:020000040000FA
:1000000000230020DD030000E5030000E7030000FB
:10001000E9030000EB030000ED0300000000000016
:10002000000000000000000000000000C903000004
:10003000F103000000000000F3030000F5030000DE
:10004000F7030000F7030000F7030000F7030000C8
:10005000F7030000F7030000F7030000F7030000B8
:10006000F7030000F7030000F7030000F7030000A8
:10007000F7030000F7030000F7030000F703000098
:10008000F9170000F7030000F7030000F703000072
:10009000F7030000F7030000C9140000F703000095
:1000A000F7030000F7030000F7030000F703000068
:1000B000F7030000F703000000000000000000004C
:1000C000F7030000F7030000F7030000F703000048
:1000D00055140000F7030000F703000000000000C3
:1000E0000000000000000000000000000000000010
:1000F0000000000000000000000000000000000000
:1001000000000000000000000000000000000000EF
:1001100000000000000000000000000000000000DF
:1001200000000000000000000000000000000000CF
:1001300000000000000000000000000000000000BF
:1001400000000000000000000000000000000000AF
:10015000000000000000000000000000000000009F
:10016000000000000000000000000000000000008F
:10017000000000000000000000000000000000007F
:10018000000000000000000000000000000000006F
:10019000000000000000000000000000000000005F
:1001A000000000000000000000000000000000004F
:1001B000000000000000000000000000000000003F
:1001C000000000000000000000000000000000002F
:1001D000000000000000000000000000000000001F
:1001E000000000000000000000000000000000000F
:1001F00000000000000000000000000000000000FF
:10020000DFF80CD000F03CF9004800471D28000042
:100210000023002080F308888E46104730B450E851
:10022000012F93B2C48923448489A34228BF1B1B96
:100230000489A34202BFBFF32F8F002007E0C3EA67
:10024000020340E80134002CE9D14FF001000A60BC
:1002500030BC704750E8012FC2EA024240E8012159
:100260000029F7D1704730B450E8022F1FFAA2F3EB
:10027000C488A34202BFBFF32F8F00200DE0C489C2
:1002800023448489A34228BF1B1BC2EA034340E8DE
:100290000234002CE8D14FF001000A6030BC7047F6
:1002A00050E8022FC2EA224240E802210029F7D199
:1002B0007047034653E8022FD988B2EB324F4FF014
:1002C000000017BF92B241EA014142EA014104E055
:1002D0005A68B2EB324F08BF012043E80212002AED
:1002E000E8D1704730B4044654E8000F0D4644E8A6
:1002F0000053002BF8D1156030BC704730B4044671
:1003000054E8000F40EA010544E80053002BF7D100
:10031000156030BC704730B4044654E8000F00EA62
:10032000010544E80053002BF7D1156030BC70473D
:1003300030B4044654E8000F80EA010544E8005355
:10034000002BF7D1156030BC704730B4044654E838
:10035000000F00EB010544E80053002BF7D11560B6
:1003600030BC704730B4044654E8000FA0EB0105E0
:1003700044E80053002BF7D1156030BC704770B4CF
:1003800004464FF0000054E8006F0D68AE4207BF0E
:1003900044E80023012044E800630E60002B1CBFEA
:1003A0000020F0E770BC704730B4044654E8000FFA
:1003B00088422CBF451A054644E80053002BF5D16E
:1003C000156030BC704700001EF0040F0CBFEFF347
:1003D0000880EFF3098003F013BD00000648804752
:1003E00006480047FEE7FEE7FEE7FEE7FEE7FEE71A
:1003F000FEE7FEE7FEE7FEE7CD1400000102000085
:10040000202A04DB203A00FA02F1002070479140D4
:10041000C2F1200320FA03F319439040704740EAE9
:1004200001039B0703D009E008C9121F08C0042A72
:10043000FAD203E011F8013B00F8013B521EF9D259
:100440007047D2B201E000F8012B491EFBD2704781
:100450000022F6E710B513460A4604461946FFF790
:10046000F0FF204610BD30B504460020034600E0F2
:100470005B1C934203D2E05CCD5C401BF8D030BDE6
:10048000064C074D06E0E06840F0010394E80700E1
:1004900098471034AC42F6D3FFF7B6FECC5B0000B1
:1004A0000C5C00002DE9F0438BB01446129D15F949
:1004B000046B00961F46804689462B46024621461D
:1004C00002A800F098FC02A9129A084600F08FFCDE
:1004D000129B02AA4146404600F079FC129B02AAF8
:1004E0002146204600F073FC2B464A4639463846E2
:1004F000009600F080FC129A394602A800F077FCC2
:1005000002A92B4642460846009600F074FC02A958
:100510002B4622460846009600F06DFC2B464246CC
:1005200021462046009600F066FC129B2246494672
:10053000484600F04CFC2B4602AA41462046009655
:1005400000F059FC129B22463946384600F03FFC29
:100550002B464A4639463846009600F04CFC324657
:1005600002A9204600F00DFE0BB0BDE8F083F0B507
:10057000154689B01C4607460E461A462946684667
:1005800000F035FC23466A463946384600F01FFC29
:1005900023462A466946684600F019FC23466A4607
:1005A0003146304600F013FC09B0F0BD8B18024410
:1005B0008B4200D1704713F8010D02F8010DF7E7E7
:1005C0002DE9F047B3F9024088461E4604F11F01A9
:1005D0002023073491FBF3F708234FFA87F994FBA4
:1005E000F3F4944228BF14464946054600F07EFACB
:1005F00022464146FFF7DAFFB6F90230E4009C429A
:1006000021D9E41A05EB87010022C4F120078D42AD
:100610000FD324364A462946304600F072FA0128A4
:1006200011D04B46324629462846BDE8F04700F037
:10063000B7BD51F8040C20FA04F3134341F8043D0C
:1006400000FA07F2E3E7BDE8F0872DE9F04793F9F8
:10065000006092B0044689461046314615469846D9
:1006600000F063FA002840F093804246494602A811
:1006700000F0BDFB434602AA21460AA800F0A7FBF2
:1006800002A90846424600F0B2FB43462A464946C4
:10069000484600F09CFB08F10407424629462846DC
:1006A00000F0A5FB3B462A4621462046009600F076
:1006B0004BFA3B462A4629462846009600F044FA63
:1006C0003B462A4621462846009600F094FB4346C6
:1006D0002A462146204600F07AFB3B462246214628
:1006E0002846009600F030FA3B4600962A462146FE
:1006F000204600F029FA2368DB074CD533463A46FA
:100700002146204600F0C4F931468246204600F0DA
:100710002AFD06F18043013B54F8230040EACA70E9
:1007200044F8230042462146284600F060FB3B4641
:100730000AAA29462846009600F05DFB3B460AAA15
:1007400029462846009600F056FB0AA908463B4673
:100750002A46009600F04FFB43460AAA214620464F
:1007600000F035FB02AA3B4610462146009600F0F9
:1007700042FB32462946204600F003FD32464946F8
:10078000284600F0FEFC324602A9484600F0F9FC7B
:1007900012B0BDE8F0873146204600F0E4FCC1E726
:1007A000004870471C5B00002DE9F04FEDB01F467C
:1007B000DDF8D8810590B8F9026098F9004020234F
:1007C0001F3696FBF3F676B206F1FF3924AB00250F
:1007D00043F829506CAB03EB89034CA88A46934637
:1007E000394698F9012043F8805C43F8605CFFF7D4
:1007F000DDFE98F9012054A8B918FFF7D7FE21466D
:100800004CA800F092F90746002840F039812146B3
:1008100054A800F08AF90290002840F0338108F1D2
:10082000240332464CA91846039300F06AF90128C4
:1008300040F02A81324654A9039800F062F9012859
:10084000069040F021811CAD0CAF3346039A54A9A9
:10085000284600F092F9029B47F829305A46514643
:1008600038464346FFF7ACFE39463846039B0096B0
:100870002A4600F008FA0DF5B879039B00962A463F
:100880004CA914A800F0FFF948462246059900F04B
:1008900078FCA30009EB030A0793059BA1005918F4
:1008A00008F1440B5046224600F06BFC59462246A4
:1008B00034A800F066FCA3000BEB030122463CA821
:1008C00000F05FFC08F10403494634AA284600946E
:1008D000049300F090FA53464A463CA934A8CDF858
:1008E0000080FFF7DFFD2346049A2946284600F0E2
:1008F00044F92A46514648464346FFF738FE029BD4
:1009000008933146059B0A933846CDF824B0CDF8BC
:100910002C9000F00BFC3146814614A800F006FC38
:100920008145B8BF81461FFA89F909F1FF3B0FFAEB
:100930008BFB5946384600F063FC5946071C14A847
:1009400018BF012700F05CFC002814BF022300231D
:100950001F430DF1200A22465AF8277024A8394671
:1009600000F00FFC0DF1B00BA300F9182246584619
:1009700000F007FC2146284600F0B8F8A9F102096A
:10098000069B2B600FFA89F90DF1900AB9F1000F5F
:1009900023DA2346049A2946284600F0EEF8434617
:1009A0002A4659465046FFF7E2FD32465146039823
:1009B00000F0A7F8012805D03346039A5146504667
:1009C00000F0EEFB013C64B2002C4CDA029BB3FA5F
:1009D00083F040096DB0BDE8F08F43462A46D8F851
:1009E000A47059465046B84749460CA800F008FC88
:1009F0004946071C14A818BF012700F001FC002875
:100A000014BF02200020384308AB53F820702FB3E6
:100A10002246394634A800F0B4FB079B2246F91859
:100A20003CA800F0AEFB43462A463CA934A8FFF799
:100A30009EFD049B009434AA514644A800F0DBF9C3
:100A40005B4652463CA934A8CDF80080FFF72AFD4A
:100A5000434644AA2946284600F0B9F909F1FF396E
:100A60000FFA89F992E723B26CAA02EB83025AF8D3
:100A7000233052F8802C5340029A1A430292A1E785
:100A80002846A7E73846A5E70298A3E7000000003C
:100A9000C3F10803DB0070B50133002403A500BFD8
:100AA0005B1920C940CAAD1920C0184720C940CAE7
:100AB000754120C020C940CA754120C020C940CA24
:100AC000754120C020C940CA754120C020C940CA14
:100AD000754120C020C940CA754120C020C940CA04
:100AE000754120C06441204670BD00BF002310B591
:100AF0001C465AB2914200DC10BD40F8234001333D
:100B0000F7E710B5013A52B2002A01DA002010BD11
:100B100013B250F8234051F823309C4203D8F1D24D
:100B20004FF0FF3010BD012010BD10B500231A4654
:100B30005CB2A14203DCB2FA82F0400910BD50F869
:100B4000234001332243F3E770B59DF910401E4660
:100B500023460546FFF79CFF30B92246294630461A
:100B6000FFF7CFFF012807D0234632462946284603
:100B7000BDE8704000F014BB70BDF0B50F46A1B0E9
:100B800006461946384615461C46FFF7CEFF28B1E3
:100B900021463046FFF7AAFF21B0F0BD2246394674
:100BA000684600F0EEFA2246294608A800F0E9FA65
:100BB000214610A8FFF79AFF0123214618A8109399
:100BC000FFF794FF224608A96846FFF79AFF28B965
:100BD000224610A9304600F0D4FADDE7009BDA0780
:100BE00009D42146684600F0BEFA2246294610A8DC
:100BF00000F0E6FBE6E7089BDB0707D4214608A8E0
:100C000000F0B1FA2246294618A8F1E70028234649
:100C10001CDD08AA6946684600F0C2FA214668460B
:100C200000F0A1FA224618A910A8FFF76AFF0028D1
:100C300005DA10A923462A460846FFF729FF10A91E
:100C4000234618AA084600F0ABFACEE708A96A4680
:100C5000084600F0A5FA214608A800F084FA2246CA
:100C600010A918A8FFF74DFF002805DA18A9234698
:100C70002A460846FFF70CFF18A9234610AA084683
:100C800000F08EFABEE72DE9F04FB5B004AD9DF946
:100C9000F8401F4680462346284600F0BEF824ABA5
:100CA000214638460293039500F040FAC0EB8410C9
:100CB00005B26B4203F01F034FF0200695FBF6F6DA
:100CC00076B205F01F0914A858BFC3F100093146D8
:100CD000FFF70CFFB9F1000F30B22BDD14AB00228F
:100CE00003EB8000C9F1200E1346A34217D327B2AD
:100CF0007B00019314AB03EB870704F1FF3934AB9E
:100D0000012603EB8909002D55DB34AB0022C6F127
:100D10000100964603EB860A03EB80002DE057F8AE
:100D2000236006FA09F10A4340F8232026FA0EF25E
:100D30000133DAE714AB2246394603EB800000F0BA
:100D400020FAD4E70FFA81FC5AF8C83C53F82CB0CB
:100D500034AB03EB810151F8803CABEB0303A3EB15
:100D60000E039B4504D034BF4FF0010E4FF0000E30
:100D700050F8C81C41F82C300132019B51B2994205
:100D8000E0DBA6EB0E035E42214614A85E4100F0B4
:100D9000EAF934AB03EB8403214653F8802C59F86D
:100DA000803C384643EAC273013D49F8803C2DB28D
:100DB00000F0D9F9A7E734AB03EB8606224656F8D4
:100DC000C81C404600F0DDF935B0BDE8F08F30B505
:100DD0001C4691B0054693F90030684600F01DF8B6
:100DE000D4F8AC3069462846984711B030BD134658
:100DF0000A46FFF7ECBF70B59DF910401E4623462A
:100E0000054600F0CDF938B123463246294628463A
:100E1000BDE87040FFF73CBE70BD2DE9F04F08B44F
:100E2000F8CA04B451F8042BA3FB028940F8048BE0
:100E30004FF0000AE4FB629A4FF0000BE5FB62AB57
:100E40004FF0000CE6FB62BC4FF0000EE7FB62CEF9
:100E500051F8042B4FF00008E3FB628940F8048B43
:100E6000E4FB629AE5FB62ABE6FB62BCE7FB62CEA9
:100E700051F8042B4FF00008E3FB628940F8048B23
:100E8000E4FB629AE5FB62ABE6FB62BCE7FB62CE89
:100E900051F8042B4FF00008E3FB628940F8048B03
:100EA000E4FB629AE5FB62ABE6FB62BCE7FB62CE69
:100EB00051F8042B4FF00008E3FB628940F8048BE3
:100EC000E4FB629AE5FB62ABE6FB62BCE7FB62CE49
:100ED00040F8049B40F804AB40F804BB40F804CB56
:100EE00040F804EB0CBC052B00F01E810C68A0F14F
:100EF0001400A1F11401A2F1140252F804EB4FF016
:100F0000000550F8046BE4FB6E5652F804EB50F801
:100F1000047BE4FB6E6752F804EB50F8048BE4FBAF
:100F20006E7852F804EB50F8049BE4FB6E8952F89B
:100F300004EB50F804ABE4FB6E9AA0F1140052F8F5
:100F4000044B51F804EB4FF0000CE4FB6EC540F885
:100F500004CB51F804EBE4FB6E5640F8045B51F807
:100F600004EBE4FB6E6740F8046B51F804EBE4FB20
:100F70006E7840F8047B51F804EBE4FB6E8940F88E
:100F8000048B51F804EBE4FB6E9AA0E80006062BF4
:100F900000F0CA800C68A0F11800A1F11801A2F1BC
:100FA000180252F804EB4FF0000550F8046BE4FB14
:100FB0006E5652F804EB50F8047BE4FB6E6752F86F
:100FC00004EB50F8048BE4FB6E7852F804EB50F815
:100FD000049BE4FB6E8952F804EB50F804ABE4FB8D
:100FE0006E9A52F804EB50F804BBE4FB6EABA0F130
:100FF000180052F8044B51F804EB4FF0000CE4FBDE
:101000006EC540F804CB51F804EBE4FB6E5640F893
:10101000045B51F804EBE4FB6E6740F8046B51F895
:1010200004EBE4FB6E7840F8047B51F804EBE4FB3E
:101030006E8940F8048B51F804EBE4FB6E9A40F89B
:10104000049B51F804EBE4FB6EABA0E8000C072B0B
:101050006AD008B40C68A0F11C00A1F11C01A2F137
:101060001C0252F804EB4FF0000550F8046BE4FB4F
:101070006E5652F804EB50F8047BE4FB6E6752F8AE
:1010800004EB50F8048BE4FB6E7852F804EB50F854
:10109000049BE4FB6E8952F804EB50F804ABE4FBCC
:1010A0006E9A52F804EB50F804BBE4FB6EAB52F8B6
:1010B00004EB50F804CBE4FB6EBCA0F11C0052F82A
:1010C000044B51F804EB4FF00003E4FB6E3540F89D
:1010D000043B51F804EBE4FB6E5640F8045B51F816
:1010E00004EBE4FB6E6740F8046B51F804EBE4FB9F
:1010F0006E7840F8047B51F804EBE4FB6E8940F80D
:10110000048B51F804EBE4FB6E9A40F8049B51F811
:1011100004EBE4FB6EAB40F804AB51F804EBE4FBEA
:101120006EBCA0E8001808BCBDE8F08F013949B2D8
:10113000002904DA013149B231B90846704750F844
:101140002130002BF2D0F5E701F18043013B50F84C
:101150002330002023B9013900EB411108B2704758
:101160005B080130F6E700EB81010023884200D3E1
:10117000704751F8042C43EA520341F8043DD30769
:10118000F4E710B500235CB2A24200DC10BD51F8B8
:10119000234040F823400133F5E700000000000041
:1011A000C3F10803DB0070B50133002403A500BFC1
:1011B0005B1920C940CAAD1B20C0184720C940CACE
:1011C000B54120C020C940CAB54120C020C940CA8D
:1011D000B54120C020C940CAB54120C020C940CA7D
:1011E000B54120C020C940CAB54120C020C940CA6D
:1011F000B54120C06441B4FA84F0400970BD00BF1D
:101200004A11012350F8220001F01F0103FA01F1F5
:1012100008407047F0B5082289B00C460646FFF733
:10122000B0FFCB6A03930B6B04934B6B05938B6BF3
:101230000693CB6B0793002708236A4669466846E6
:10124000029701970097FFF723FC082305466A469B
:1012500031463046FFF71CFC236B0393636B04930A
:10126000A36B0593E36B0693054408236A4669461E
:1012700068460797FFF70CFC082305446A46314689
:101280003046FFF705FC236A0093636A0193A36A63
:101290000293A36B0693E36B0793054408236A4606
:1012A00031463046059704970397FFF7F1FB636AD1
:1012B0000093A36A0193E36AA26B0293636B0393A7
:1012C00004920693E26B236A0592054407936A46EB
:1012D000082331463046FFF7DBFBE36A0093236BBC
:1012E0000193636B0293236A0693A36A07930544F1
:1012F00008236A4631463046059704970397FFF75F
:101300004FFF236B0093636B0193A36B0293E36B1B
:101310000393636A0693E36A07932D1A08236A46C8
:101320003146304605970497FFF73AFF636B009309
:10133000A36B0193E36B0293236A0393636A0493A1
:10134000A36A0593236B07932D1A08236A46314637
:1013500030460697FFF724FFA36B0093E36B0193DE
:10136000636A0393A36A0493E36A0593636B079329
:101370002D1A08236A463146304602970697FFF732
:101380000FFF2D1A0D4C0FD435B9082231462046D7
:10139000FFF7B7FB01280FD008232246314630461D
:1013A000FFF7FEFE2D1AEFE70823224631463046AE
:1013B000FFF76EFB2D18F7D409B0F0BD205B0000DD
:1013C00070B5036813F001050646144605D01346B0
:1013D0000A460146FFF75CFB054621463046FFF70B
:1013E000C2FE45B104F18042013A56F8223043F082
:1013F000004346F8223070BD2DE9F04115468AB011
:10140000044688462022002102A8FFF723F82E1D5B
:1014100095F9007003232A46414620460293FFF7C0
:10142000E6FC334602AA214620460097FFF7E3FC7C
:101430002B46424621462046FFF7C9FC009733461B
:1014400005F1840221462046FFF77EFB0AB0BDE885
:10145000F08100002DE9F041194E4FF48271D6F869
:10146000040130B11748C268521CC260304602F015
:101470005FFB00254FF4A07707EB85018AB2304669
:10148000B258BAB189B202F053FB0E48103000EBEB
:101490000514204603F094FF616819B1204603F05B
:1014A00017FF07E0A16811B1204603F011FF206883
:1014B00000B180476D1C022DDED3BDE8F081000035
:1014C000004002400000002002F02EBCF0B5B84AF7
:1014D000B8494FF080541368D4F830010978D4F833
:1014E0003421451CC1F3031106D084460127002591
:1014F000BCF1060F0BD102E003F0FF0CF6E7B4F8E5
:101500002463DFF8B4C2C6F30426CCF80060DEB270
:10151000062E06D1032904D1DFF8A4C2A74ECCF8C9
:101520007460461C04D08446BCF1060F0BD102E067
:1015300003F0FF0CF8E7D4F84462DFF888C2C6F382
:101540004236CCF80060DEB2062E08D1032906D15F
:101550009D4ED6F800C02CF0807CC6F800C0461C1A
:1015600004D08446BCF1060F0CD102E003F0FF0C5E
:10157000F8E74FF08046C6F80C51C6F81051914E6E
:10158000361F3560DEB2062E08D1032906D1DFF8FA
:1015900034C203260CF1640CCCF80060DEB2062ED7
:1015A00011D103290FD1DFF824C20526CCF8006041
:1015B000864E78363760854E083635600CF1040C5F
:1015C0003F26CCF80060461C06D084464FEA02064F
:1015D000BCF1060F7ED103E003F0FF0C0E46F7E7E7
:1015E000032E7DD0042E7BD0794E3668DFF8E4C11F
:1015F000CCF80060764E361D36680CF1040CCCF841
:101600000060734E083636680CF1040CCCF80060AC
:101610006F4E0C3636680CF1040CCCF800606C4E42
:10162000103636680CF1040CCCF80060684E1436A5
:1016300036680CF1040CCCF80060654E183636683C
:10164000DFF890C10CF1200CCCF80060604E1C3625
:1016500036680CF1040CCCF800605D4E203636681C
:101660000CF1040CCCF80060594E243636680CF1AD
:10167000040CCCF80060564E283636680CF1040C89
:10168000CCF80060524E2C3636680CF1040CCCF8C5
:1016900000604F4E30363668DFF838C10CF1400C30
:1016A000CCF800604A4E343636680CF1040CCCF8A5
:1016B0000060474E383636680CF1040CCCF80060F8
:1016C000434E3C3636680CF1040CCCF80060404EBA
:1016D000403600E004E036680CF1040CCCF8006001
:1016E000461C05D04FEA000CBCF1060F09D102E000
:1016F00003F0FF0CF8E7D4F85842374E04F04F04DB
:101700003460441C03D00346062B09D101E0DBB250
:10171000FAE732490B68DB0702D06FF001030B6078
:1017200006280AD1032A08D0042A06D0052A04D0A4
:101730002B48016841F480610160234874380168D6
:1017400041F470010160BFF34F8FBFF36F8F4FF013
:101750001021D1F80002002803DBD1F80402002890
:1017600022DA204A176020480368002BFCD015239A
:10177000C1F800320468002CFCD0C1F804320168C2
:101780000029FCD0156001680029FCD0BFF34F8F01
:101790000D48F0380168154A01F4E0611143016019
:1017A000BFF34F8F00BFFDE7124911480860F0BD3D
:1017B000E00F00F0E80F00F0403501400DF0ADBA49
:1017C00000C007403C050040FCED00E01056004022
:1017D0000404001020C50040E40E00400004004056
:1017E0003C17004004E5014000E401400400FA0514
:1017F0000090D00384000020034808B50021016058
:101800000068009008BD00000001014002E008C827
:10181000121F08C1002AFAD170477047002001E06A
:1018200001C1121F002AFBD17047000001212028AE
:1018300003DA81400548014003E0402802DA2038FD
:10184000814009B10120704700207047FC06FFBDB0
:1018500030B585B00D46164C1621ADF800101ECCE3
:101860000DF1040C8CE81E00124C022101222170A3
:101870006270A0700320E070217159206071FE2019
:10188000A071694604F109007DDF00280ED1BDF882
:1018900000002A46411CE17109212172BDF808109F
:1018A0000844ADF8080001A9034872DF05B030BD57
:1018B000D05700009C0000203400002010B586B0F6
:1018C0000624182208496846FEF7A9FD6946204605
:1018D000FFF7BEFF002805D1044C207874DF0121FA
:1018E000207873DF06B010BDE05700003400002000
:1018F00070B5104CA66C656A01F020FB216B0844A2
:101900006A1A3144814200D10022082300F0C0FE4F
:1019100006000DD101F012FB0022294600F0F6FB73
:10192000A16A814203D10121A561C4E907013046C2
:1019300070BD0000741B800002F0A4FB02F0A2FB4B
:101940002DE9F84F254C8146924660880E4681422B
:1019500041D800274FF6FF788DF80070684600F0F8
:1019600075F822786078A188884201DA401C00E08E
:101970000020C0B2904204D19DF8000000F08AF827
:1019800027E065786078884201DA401C00E000209A
:1019900060709DF8000000F07DF8454519D0A06802
:1019A000B9F1000F40F835A00DD066B16188E0684C
:1019B000324605FB01004946FEF731FDA06800EB09
:1019C000C500868002E000EBC50087800020BDE8EE
:1019D000F88F0420FBE70920F9E7000068000020E9
:1019E00010B50E4C03E0401C00E000202070207871
:1019F0006178814210D022786188E068A36802FB98
:101A0000010003EBC20153F8322089889047207807
:101A1000A1888842E9DAE6E710BD000068000020EE
:101A200030B5CB0008339DB293074FF0000401D0CE
:101A3000072030BD044B9A602A44DA605C701C7049
:101A400058809980002030BD6800002030B5EFF349
:101A5000108172B60D4A9468012324B103700029E5
:101A600000D162B630BD93604FF0E023D3F88051CF
:101A7000074C25401560C3F88041D3F88441546079
:101A80005A17C3F8842100220270E8E70001002001
:101A9000FC06FFBD0B498A68002A11D000280FD12F
:101AA000EFF3108072B60B684FF0E022C2F80031FD
:101AB0004B68C2F8043100228A60002800D162B667
:101AC000704700000001002070B5164E154856F80A
:101AD000245F846CB168AC2901D024B111E0406B63
:101AE00004442D1A05E001F03DFA0446B068AC2824
:101AF00007D12A46A4F580410B48FEF7B4FC002824
:101B00000ED02A4621460848FEF7ADFC002807D033
:101B100001F08EF829462046BDE8704001F046BB32
:101B200070BD0000741B80000000000030B504464A
:101B30002C4995B04FF6FF70488001208DF81200B7
:101B40004FF65960ADF81000224604A90120A8DF25
:101B5000002844D1244B0FCB8DE80F00A11C684610
:101B600062DF00283BD120491C2260390BA8FEF718
:101B700056FC1E4D142205F1C401A8681290A078ED
:101B80008DF84A002868139006A8FEF748FC12A8B2
:101B9000069013A807902088231D06AA0BA9AADF88
:101BA00000281CD11C2205F1D8010BA8FEF737FC38
:101BB000E8681290A0788DF84A00686813901422A3
:101BC00005F1F40106A8FEF72AFC12A8069013A856
:101BD0000790208804F10C0306AA0BA9AADF15B010
:101BE00030BD000034000020A8580000A0570000BD
:101BF000F0B585B0044614216846FEF729FC20782C
:101C0000032308280BD12748C188491E89B2C18007
:101C10008288002A3ED000293CD1C28023702178DE
:101C2000607860228DF800208DF801108DF8020098
:101C30006078032101280AD00B2828D100F0D6FCB7
:101C40008DF80300002000F0D9FC04211FE020786B
:101C500009281CD2DFE800F01B1B1B201B1B051BE7
:101C60002000D4E902706D46E91C666803F0B2FBFF
:101C7000044629193046C91C03F0ACFB0444291959
:101C80003846C91C03F0A6FB2044C01CC1B26846FC
:101C900002F0FCFF05B0F0BDD4E90112684602F085
:101CA000E4FFF2E7340000202DE9F0411349034638
:101CB00000208A68D4071ED0114CA3421BD048884C
:101CC000A0F57F43FF3B10D042F004028A6013214D
:101CD00076DF00280FD10B4EC8254FF47A47741CCD
:101CE0003846A0476D1EFAD101E0087874DFBDE8E0
:101CF000F04101F0B5BFBDE8F081000034000020E4
:101D00000C5C0000B057000038B5214C0021227A4D
:101D1000D20701D0084638BDE0601E4800F02AFE18
:101D20000020009001F04EFA88B91B4813DF70B90B
:101D300001F0C0FF58B9684601F000FF38B96946A4
:101D4000012001F005FF10B9684601F04FFF00289F
:101D5000E1D101F023FB30B1104801F013FBA06882
:101D600040F00200A06000F05FFC0028D3D10B48D7
:101D70001C30FFF7DBFE0028CDD1FFF79FFD0028C8
:101D8000C9D1A06840F00100A060002038BD00006B
:101D900034000020145C000000000000BC000020A3
:101DA00070B50446011D008800226F4D86B02128C1
:101DB0007ED025DC13287CD018DC01287AD01028AE
:101DC0005BD011284AD14FF6FF706880287A40070F
:101DD00004D4FFF773FD08B1FFF7B0FDE9680029EF
:101DE0003CD006B00220BDE870400847142878D0E7
:101DF0001A2877D01F2831D16888091D75DF62E065
:101E0000512870D02CDC222828D0232862D0242806
:101E100024D0502822D1554D34F8060FA988884285
:101E20001CD1534800F06CFD060017D0628904F104
:101E30000C01FEF7F4FA18224E496846FEF7EFFA55
:101E4000049601956089ADF81400684601F0EEF93A
:101E5000002803D03146464800F074FD06B070BD3E
:101E600052287BD0552813D05628F7D1A0790028C6
:101E7000F4D11321688876DF25E008886880E96856
:101E800009B1012088473B4968887A3975DFE5E761
:101E9000E188F72914D28807B0F1404F11D0C91F4B
:101EA00089B2481EC21700EB927222F0030202E0D0
:101EB00033E01CE036E0801A081A801D81B200E091
:101EC000F7216888B5DF0028C8D006B0BDE87040AB
:101ED000FFF734BD00920192A0880022694690DF8E
:101EE00018E034E03AE021E0FFF728FDB6E72148AA
:101EF0006A46903842F60521806A009002A8019057
:101F00006888ADDF08B1FFF719FD00231A46852167
:101F100068887FDF0028E7D1A0E70092088869463B
:101F20008FDFF7E70021688866DFCCE7A07900281B
:101F300094D021460D4802F0BDF800288ED006B09E
:101F400004F10801BDE87040084801F0A7BF002473
:101F5000088822462346214686DFB4E70023088806
:101F60001A461946B1DFAEE734000020D800002041
:101F7000145C000030580000007800F00100704749
:101F800013B90378012B01D001F017BB0120704772
:101F90000022C32100F5187000F0B8B82DE9F04315
:101FA000A1B00446DDE9289520200F4620909846F0
:101FB0001646782102A8FEF74BFA41212046FEF78B
:101FC00047FAB7F8940006EB061107EB8101B0421F
:101FD00001D991F8965025701DB3012D04D0022D22
:101FE0000AD0032D13D116E000224946404600F0E6
:101FF0008DF8C4F8010014E020A9601CCDE90001AF
:102000004B4642460A4902A800F0C0FE48B10020F3
:1020100021B0BDE8F083B1F89820601C9A31FEF73A
:10202000FEF94A464146204601F0C7FAF0E70000B3
:10203000C855000010B500284FF0000006D0044934
:102040000870BDE81040034801F0D4B900F026FA4A
:10205000000080009D2400002DE9FC410646C007D9
:102060004FF000050ED0104F00240122385D00957E
:1020700000231146019501F0E6FC641C042CF4D306
:1020800000F024F8B0070DD5074E0024361D0022BD
:10209000305D032300951146019501F0D4FC641CCA
:1020A000042CF4D3BDE8FC81AC5500000249085C67
:1020B000012101F0DABC0000AC5500000249085CC7
:1020C000002101F0D2BC0000AC55000010B5002486
:1020D0002046FFF7EBFF641C042CF9D310BD10B5AC
:1020E00043689C18446021B905E013F8010B01F81E
:1020F000010B521EF9D2012010BD00000249CA6B2B
:102100004260096C81607047741B8000F0B54FF02D
:10211000FF3622B11268D24300230A4D0DE0324649
:10212000FAE7C45C62400824D70700D037462F4046
:1021300087EA5202641EF7D15B1C8B42F1D3D04375
:10214000F0BD00002083B8ED10B504460068401CC7
:1021500007D0204602F070FE2168814201D10120A3
:1021600010BD002010BD000010B50B4C90B0607881
:1021700000280ED100F06EFE20220849684600F0CB
:1021800089FE40236A460649064800F0BFFD01204B
:10219000607010B010BD0000580000206C550000A9
:1021A00020228000E0550000F0B5146906468DB08D
:1021B00020681546271DE0B1022920D00A20009092
:1021C0006B4609AA304602F01FFD00280FD009A96E
:1021D00001A8009A02F00EFB01AE96E80F0005AED2
:1021E00086E80F00236869683A4605A898470DB04D
:1021F000F0BD0DB03046BDE8F04002F06FBB69465F
:10220000304602F001FB0028F1D0236869683A46A5
:10221000684698470028EAD002980028F5D101982E
:1022200070600120E3E753689B7813F0C00303D08C
:10223000402B03D00020704700F002B8FFF7B4BF76
:102240002DE9FF410B465168064614468878334D08
:1022500000F00F0210F0300055F8225006D0102880
:1022600006D0202808D0302856D13EE022694DE023
:1022700061690120087047E0022B28D1042A26D882
:102280004FF0010869463046676902F0BDFA002840
:102290001AD009E00B89226903FB00226846A8478F
:1022A00070B13888401C3880029820B16168388845
:1022B0004A899042EED301987060029860BB02E0B8
:1022C0004FF00008F7E7404604B0BDE8F081D4E9DC
:1022D00004300F890288498907FB02338A421BD2E6
:1022E000521C02801A46616810E008886169072A5A
:1022F000088009D1606801892069FEF7A9F8606843
:102300002169C06802F09BFA2269616804B0304616
:10231000AC46BDE8F04160470020D5E7F85A000020
:1023200070B5204801240168C90301D581130CE070
:102330001D4801681522C9B2B2EBD10F07D101685F
:10234000C90704D0016801F0560101600024174D4F
:10235000286A012824D14FF440501549406888422A
:1023600008D123464FF4805105F518706A6BFFF7CA
:1023700007FEA8B100F0E2FD014623460D48AA6918
:10238000FFF7FEFD60B14FF0A040D0F81005000C43
:1023900010F0010F04D001F0C5FB10F0B10000D027
:1023A000012070BD0004004020050040741B800027
:1023B000DBE5B151151E80004169002901D0C068DC
:1023C0000847704710B508281BD2DFE800F0041258
:1023D0001A1A1A041A040120FFF73EFE0020FFF724
:1023E0006DFE0120FFF76AFEBDE810400220FFF7F6
:1023F0005DBE0120FFF75AFEBDE810400220FFF746
:102400005DBE10BD10B50446801E062810D2DFE860
:1024100000F00D03030F09090A494FF4701000F092
:1024200007FB05E00120FFF705FE01E000F0F6FFE5
:1024300005484168002903D02046BDE81040084700
:1024400010BD0000212700000000800010B50446E8
:10245000062801D0072C02D1002001F077F80448AB
:102460000168002903D02046BDE81040084710BD90
:102470000800800010B5FF224FF400710648FDF7F8
:10248000E0FF054820212438FDF7E2FF0249002043
:102490005C39086310BD0000D01B8000BFF34F8F74
:1024A00005480168054A01F4E06111430160BFF38A
:1024B0004F8F00BFFDE700000CED00E00400FA05BF
:1024C0002DE9FC4180461F4615460E4600240D4866
:1024D00000F008FA38B11120BDE8FC8106EB0430A9
:1024E00001F0CEFA641CAC42F8D1064800F0F7F9CE
:1024F000CDE90057334600220221404600F02AF879
:102500000020E9E7180080002DE9F843104D0F4640
:1025100080461E4691466946286800F0B4F90400DA
:1025200014D01C21FDF794FF01202071C4F81490F1
:10253000380BC4F80080C4E902606946286800F0DE
:10254000C3F902F041FB0020BDE8F8830420FBE75B
:10255000245900002DE9F04387B00446DDE90E89D7
:1025600080681D4616460F4600280BD01821684685
:10257000FDF76EFF02A88DF8007080E86003A16887
:102580006846884707B0BDE8F08330B50446006868
:1025900087B00D46806800281FD018216846FDF7D7
:1025A00057FF0195A0680590207910B1012810D13E
:1025B00007E001208DF8000020690290E068039098
:1025C00005E002208DF80000E068000302906069D9
:1025D0000490206881686846884707B030BD0B28A2
:1025E00003D30B38C0B200F009B87047024900228B
:1025F00008780A70704700001400800001490870D4
:102600000B207047140080000149012008707047BA
:102610000000800001490120087070473000002050
:102620000123723000F0F2BF0EB59DF8080020F0D3
:102630000F00401C20F0F00010308DF808006846B4
:102640006DDF002819D19DF80100401C8DF80100B4
:1026500068466CDF002810D10848007A800703D54F
:102660000748011D806901E006A1072082B202A887
:102670007CDF002801D105487ADF0EBD3400002040
:10268000BC0000204466755461726700B6570000B4
:102690002DE9F04781461D4616468846494502D138
:1026A0000020BDE8F087A8EB0900040B06F6FF70D8
:1026B0004FF0000A070B00F0CFFAA5422AD22C46B1
:1026C00028E0A74202D8BA46354601E0A2462503D3
:1026D00000225146484600F02FFD0028E1D1681E37
:1026E00000F003002A1A002341464846D21C00F09D
:1026F00039FD0028D5D10948A7EB0A07761B016BE5
:10270000A94429440163A844002000F00BFF5FEABC
:10271000000AC6D1002ED4D15046C2E7741B8000F7
:102720000120FFF787BC000001494160002070478D
:10273000F858000010B50B4941600B4800F0D2F882
:1027400068B901F003FB08491C234FF4EE720874CA
:102750000448A1F5EE71001F006800F081F8002028
:1027600010BD000028590000E8020020024800685F
:10277000002800D001207047180080000248007A2D
:10278000002800D001207047E802002010B54FF467
:102790004051144B4C6800F500509C4204D04268F4
:1027A0009A4201D1012200E000229C4218D14468E3
:1027B0009C4215D10A78142A01D9496900E0002108
:1027C000094A0378B1FBF2F1142B01D9406900E00A
:1027D0000020B0FBF2F0814201D0012200E0002293
:1027E000104610BDDBE5B15140420F0070B5054603
:1027F00008680C464A6886682846314601F040FF62
:102800006068286104F10C006861B0780221B1EBC6
:10281000901F01D1241D2C6170BD000000F0F0F963
:1028200000224FF48051104600F016F948B90648CE
:102830000022C0F5FC2100F00FF910B9034800F0A8
:1028400077F901F01FFC000000000000C523000024
:1028500010B5FDF72EFD08B1002010BD112010BDF0
:1028600010B531B1B2FBF3F403FB14241CB1092001
:1028700010BD0E2010BD0160002141608160828189
:10288000C381084610BD70B50C460546FDF7C6FC71
:10289000002802D021882868084470BD10B50A8835
:1028A00049888A4203D1FDF7FBFC012010BD0020BE
:1028B00010BD70B50C460546FDF7D5FC002802D0CA
:1028C00061882868084470BD10B50A8849888A4222
:1028D00003D1FDF7BFFC012010BD002010BD002179
:1028E00000F003B8012100F006B808B56A46FDF70C
:1028F00012FD009808BD08B56A46FDF7FFFC08BD4B
:1029000038B5044600258DF800506846FFF79EF85C
:1029100021686268086890420ED9401E08600178FC
:10292000238AE26801FB0325227A2168101AC0B2CB
:102930000A79824200D208719DF80000FFF7AAF8D8
:10294000284638BD38B5054600208DF800000C46F5
:102950006846FFF77BF8E868298A201AB0FBF1F196
:102960002A681068431C136001709DF80000FFF78F
:1029700091F838BD10B530B1017A42680368891A00
:10298000C9B21A6006E00E2010BD03681A68541C14
:102990001C601170491EC9B2F7D200680021017194
:1029A000084610BD10B54FF0E0224FF0FF314FF454
:1029B0008054C2F88011C2F8801200F00FFC20464B
:1029C000BDE81040AFF3008010B504461648002261
:1029D000C0F5FE2100F040F808B1FEF7AFFF00F0AF
:1029E000ADFA014611488069421EC2F30B02801AFB
:1029F00001440022104601F6FF7100F02DF808B1E5
:102A0000FEF79CFFD4E900024FF0FF31002383F36F
:102A1000148883F3108883F3118883F31388BDE847
:102A20001040FDF7F7BB000000000000741B8000A1
:102A300070B5084D04460E46686802F0C1FC002CD3
:102A400006D0324621466868BDE8704002F0AABC54
:102A500070BD000000000020F0B50A0502D1B0F5FD
:102A6000FE2F01D90720F0BD134D000B491E124F58
:102A700001222E1D103700EB113407F1040C17E072
:102A80004309C3F1000100EB411E02FA0EF106D02A
:102A9000012B06D0022B06D0032B08D105E02960BC
:102AA00005E0316003E0396001E0CCF80010401C23
:102AB000A042E5D90020F0BD0006004070B5194DD8
:102AC0000024E86A2435012807D0A52808D0AA28C0
:102AD00009D0AC280AD0002070BDFEF709FF0BE03A
:102AE00002F0F2F807E0FEF7EFFF05E002F0ECF885
:102AF00008B9FEF7E9FF0124284600F043FA0A4925
:102B000000200870094800F00DFD08B1032070BDD9
:102B10000120002CFBD00349096A0129F7D10220CA
:102B200070BD0000741B80003000002015260000DE
:102B300070B52B4D2C49002668602A48C1F8000763
:102B4000304600F05DFC80BBFFF7B8FF20B10128E4
:102B500028D002283AD105E04FF47014FFF7E0FBCB
:102B600010B930E04FF4A02400F076F81F4A20217D
:102B70001820FEF755FF08B1FEF7E0FE00F0D2FF87
:102B80001621B1EBD00F09D100F0CCFFC00705D062
:102B900000F0C8FF164920F0B100086000F004FB07
:102BA00018B903E00120FFF745FA0FE0114920466C
:102BB000FFF73EFF104800F0E1FA38B900F038F8AE
:102BC000FEF70EFFFAE700F0C3FB08B1032070BD6B
:102BD0002E700A4800F00EFCFFF7E4FEF6E7000056
:102BE000000080000C000300400000502000800026
:102BF0001C050040212700000524000009260000D4
:102C000010B540F6F8700168491C02D1074900F080
:102C10004FFF40F6FC700168491C05D1BDE810402B
:102C20004FF4FC2100F044BF10BD00000000000084
:102C300010B501F02BF9002803D0BDE8104002F0D8
:102C400027BC10BD034A93680A460146986018469F
:102C500002F0A8BB0000002070B50E4D28780028B7
:102C600017D101F013F9012690B10B480468A4F5BF
:102C70004864962C00DA962402F00AFC07492046A4
:102C8000FFF7E0FF4FF0E0214FF48030C1F8000182
:102C90002E7070BD3100002004050140CD540000AD
:102CA00040688068004710B542680830527900F0EB
:102CB000F1F8002010BD2DE9F04399B01C46904674
:102CC0000D460846DDF88090FFF7EAFF6E6807467C
:102CD0007079A04200D804462246414611A800F06F
:102CE00015F97279494601A800F0D4F801AB2246E3
:102CF00011A905F108000097FDF756FD18B1002055
:102D000019B0BDE8F08348F24250F9E770B51646B5
:102D10000C46054600F0E2F800280ED1AA791946C3
:102D2000304600F0E8F8002807D131462046FFF78A
:102D3000BAFF002801D10149216070BD7052464D93
:102D40002DE9F8430C46DDE90857814698461646BA
:102D50000D49204600F0B6F8002810D160683946C9
:102D600040794200284600F0C6F8002807D146B155
:102D700043463246214648460095FFF79CFFBDE892
:102D8000F88348F21050FAE77052464D2DE9F041B1
:102D90001D46DDE906871646044600F02DF800289A
:102DA0000DD12A463146204600F03CF8002806D1D5
:102DB0003A4641462046BDE8F04100F002B8BDE881
:102DC000F08170B515460E46044602F051FB00280E
:102DD00007D13EB160682968C268914205D248F2C5
:102DE000145070BD48F2135070BD83682A463146B6
:102DF0002046BDE87040184710B550B161B1416040
:102E0000096804468847002802D105482060002050
:102E100010BD48F2015010BD48F2105010BD000026
:102E20006E52464870B515460E46044602F020FB29
:102E300000280BD146B155B160682A463146436837
:102E40002046BDE87040184748F2105070BD002081
:102E500070BD00002DE9F0410B480C4D0C4F401B9C
:102E6000C60801203870002406E000BF55F8340081
:102E70008047002805D1641CB442F7D30220387083
:102E80000020BDE8F081000000000000000000000C
:102E90003200002070B514460D46064600F036F8A4
:102EA000291930192246BDE8704000F02FB830B51E
:102EB0000C46054600F035F828192146BDE830409B
:102EC00000F02FB828B10068884205D048F2405081
:102ED000704748F2105070470020704728B139B150
:102EE0000022C1E900201046704748F21050704798
:102EF00048F21350704720B1914205D048F211506A
:102F0000704748F210507047002070470244521E2C
:102F100004E000BF11F8013B02F801398242F9D206
:102F200070470144491E05E002780B7800F8013B28
:102F300001F801298142F7D2704700004FF4405058
:102F4000074A4168914207D18068411EC1F30B01D5
:102F5000401A00F6FF7070474FF480507047000031
:102F6000DBE5B15100B5FFF7E9FF054989690A18AA
:102F7000401E0844C0F30B00101A00F6FF7000BD9D
:102F8000741B800000210160416081600148016381
:102F900070470000741B80002DE9F0419846214FD6
:102FA00016460C460546002301215BB1012B11D0CA
:102FB000022B1ED00020381AA0F54050A8421BD288
:102FC00001221AE0FFF7CEFF8EB11749096A0129E5
:102FD000F1D00CE0FFF7B2FFB8F1000F05D14FF4CC
:102FE0004051124A4968914201D00121E3E7002192
:102FF000E1E74FF48050DEE7002242EA0400884314
:1030000005D0022B03D25B1CDBB2022BCCD912B150
:103010000420BDE8F0811BB103481830FFF7B2FF70
:103020000020F6E700000000741B8000DBE5B151D2
:1030300070B504460078092811D2DFE800F01005C9
:1030400010112510381013000D461D490320C968C2
:103050008847606900F042FBFFF7C1FA687070BDF5
:10306000084628E00D46A18A206900F013FBFFF70F
:10307000B6FA68702846FFF741F8E1680029EED0FB
:103080002069BDE8704008470C460D490831081F0B
:1030900000F03EFBFFF7A3FA60700128DFD10020AB
:1030A00000F040FA0028DAD00A20607070BD0846AF
:1030B0004FF40071C160BDE87040FFF71FB8000019
:1030C0004400002070B51A4A05780124936C092D3C
:1030D0002CD2DFE805F02B052B0B0F2B252B08003E
:1030E00000F014FF22E000F087FF1FE08B60106DFE
:1030F00048601BE0D2E91454566C2C1BA64203D046
:1031000008204870012411E00024556554642146CC
:10311000D36400F035FF07490420C968884705E0FB
:103120008B60106D48604FF48050C860204670BDC1
:10313000741B80004400002013460A4601460148E3
:1031400000F0DCBB8800002008B1034900E003491F
:103150000022034800F0D8BB345900000459000095
:103160008800002008B5009313460A46014602482D
:1031700000F062FC08BD000088000020084910B57E
:1031800008600020FFF762F9064800F0F9F900280E
:1031900004D1BDE81040034800F026B810BD00007F
:1031A000080080004D240000002070471FB58908EA
:1031B000002201AB009283E80700684618DF04B0E4
:1031C00010BD00001FB5044B0FCB8DE80F00684603
:1031D00018DF04B010BD0000B85800004FF4805054
:1031E000410408600020704710B5040011D0012090
:1031F000FFF7AAFF00280BD100F03AFA00F0CAFA54
:1032000048B10949081F00F083FA012803D00320C0
:1032100010BD072010BD04480838C4600020FFF727
:10322000EDF9002010BD00004C000020816819B1AC
:10323000024A1821FEF784BB072070474132000084
:10324000AFF3008030B587B0044618221F496846A6
:10325000FDF7E5F820788DF8000022781C4D0D2A46
:1032600025D2DFE802F0240B270B0B240B240B24C0
:1032700024240700E968072088471BE020466946A8
:10328000062A01D0012A01D1027C2A702A78012A5B
:1032900005D0022A06D000202870052008E0FFF79C
:1032A000C7FE07E0FFF70EFF20B907B030BD0220D0
:1032B0008DF80100D4E90112684690479DF801009D
:1032C0000128F2D0E96805208847EEE7E0580000C1
:1032D0004400002038B105490160054941600121E1
:1032E0000172002070470E2070470000F532000088
:1032F0002D33000010B50C0001464FF0110007D02F
:103300002278052A05D2DFE802F00F050D0F0F0025
:103310000E2010BD084600F051F80028F9D1022116
:10332000217010BD112010BD082010BD02460820DC
:1033300041B10B78022B04D1022A05D0032A00D117
:10334000112070470E207047002003220A7070473A
:1033500070B50B480024D0F82413491C03D1D0F8D1
:103360006403401C09D04FF4FE25284600F088FB7A
:10337000C9220349284600F0B3FB204670BD000077
:10338000741B800010B528B11C220349FDF747F8D3
:10339000002010BD0E2010BD64F3070010B5064CD0
:1033A00000221821201DFEF7B1FE2168814201D1C3
:1033B000012010BD002010BD64F3070070B50C4D56
:1033C0000400D5F8640305F5597503D0401C03D0FB
:1033D000082070BD0E2070BD00221821201DFEF7B0
:1033E00095FE206007222146284629DF70BD000097
:1033F00000F00700014901F015BD000000F00700D2
:1034000010B5FFF7A1FE30B900F008F8002000F079
:1034100089F8002800D0032010BD00002DE9F047F6
:103420002E48FEF791FE2E4E074634682046FEF7E2
:103430008BFE4FF0010A4FF0000958B16068012877
:1034400006D02046FEF7A4FDD4F85C12884201D1D4
:10345000012500E00025234C4FF002084FF4607175
:103460009FB10A461D492046FCF7D9FF9DB1366839
:1034700025465422311D281DFCF7D1FF4FF432722E
:1034800006F15C0105F15C0003E015B30A4615483E
:103490003168FCF7C4FF6068012818D11249402246
:1034A00001F5E470FCF7BBFF0F491C22403101F528
:1034B000E470FCF7B4FF84F8609284F8A1A20B4892
:1034C00084F8E292E169C0F82210C4F80480BDE8F3
:1034D000F0870448FCF7BCFFF7E7000000F00700A6
:1034E00054000020741B8000D01C8000F41D80005C
:1034F00070B50546094801F09FFC084C2060204645
:10350000FEF746FDC4F85C02A4F5E0632A462146B6
:10351000BDE87040024801F094BC0000741B8000BC
:1035200000F0070070B505460020FFF7E1FF04003A
:1035300003D10349284601F075FC204670BD000008
:10354000741B80004FF48050704700002DE9F0415B
:1035500007460948094D401BC6080020044607E0FD
:1035600005EBC400416838468847002802D1641C36
:10357000B442F5D3BDE8F081145C00000C5C00009F
:103580002DE9F04107460948094D401BC6080020B7
:10359000044606E055F8341038468847002802D122
:1035A000641CB442F6D3BDE8F0810000145C000056
:1035B0000C5C0000012201F0BFB938B51446027856
:1035C0000B467AB1012A04D0022A0DD0032A1BD15E
:1035D00012E0D0F80150002221461846FEF796FD71
:1035E000A84211D1012038BD01B02246BDE83040CB
:1035F0000023401C00F00AB8411C40220020009427
:1036000000F0F2F80128EED0002038BD2DE9F0419D
:10361000AAB005462020884628901E461746012459
:10362000782102A8FCF714FFFEF79EFD2EB12022A0
:10363000294620A8FFF76AFC20AD28A90A48CDE951
:1036400000013B464246094902A8FFF79FFB28B903
:10365000202229460448FCF706FF00B100242AB0C6
:103660002046BDE8F0810000C8228000C855000057
:1036700010B50648064C806B20B101F0C5FD08B1BD
:10368000012000E00020207010BD0000741B8000AD
:10369000580000202DE9F0410F4C07460D46E06B25
:1036A000A26B01264119914201D9032610E00A4973
:1036B0002A465C3108443946FCF7B1FEE06B064A05
:1036C0002844E063403229463846FEF71FFD206457
:1036D0003046BDE8F0810000741B800070B5040026
:1036E0004FF0010504D0B4F5007F03D9042508E0AC
:1036F000032506E0044900200870FEF7BBFE0348DE
:103700008463284670BD000058000020741B8000B0
:103710002DE9F04106461D480F46C16B806B814282
:1037200001D008242FE01A4D287840B1FFF71AFC89
:1037300030603946E86801F06FFE044623E001F08E
:1037400063FDF8B100F02CF80446002030603860CA
:10375000012C0FD13946E86801F05EFE04460128CD
:1037600008D13868012700213B460A46FFF714FCC0
:1037700018B10424FEF77EFE05E0FFF7F3FB30608E
:103780002F7000E005242046BDE8F081741B800006
:1037900058000020014800787047000058000020C1
:1037A00038B50F4C251D002094F86C3101460246B7
:1037B0003BB194F8D802B4F8DA2204F5B87504F5F0
:1037C0003771084B9C6800945B6800F00DF8012885
:1037D00004D1281DBDE8384000F050B838BD0000C5
:1037E000F41E8000580000202DE9F041A2B00646EA
:1037F00020200D4620901F461446DDF8A080782139
:1038000002A8FCF725FE00202190FEF7ADFC25B1B3
:103810002EB1162022B0BDE8F0811320FAE720A9CE
:103820001448CDE9000143463A46134902A8FFF780
:10383000ADFA08B9402C01D00A20EBE70D4822462A
:1038400029464038FCF7EBFD0A4820214038FFF7B5
:103850002EFB084840214038CDE90001A0F1480185
:10386000044A21A8209BFFF76BFA08B10520D1E795
:103870000120CFE7A8228000C855000070B504469B
:1038800090F85400012570B394F8550028B1012830
:1038900003D0022801D003282AD194F86E0003280F
:1038A00001D0142525E0207AE8B1E068342801D061
:1038B00011251EE0204601F053FA68B1207898B136
:1038C00094F855100C4849B1012907D06168C068C7
:1038D00081420ED810250CE012250AE0616880684C
:1038E000814206D2F6E703E094F85500012800D0A3
:1038F0000F25284670BD0000741B800030B404689A
:103900002469A44630BC604701600B681146184723
:103910002DE9F04128B1016819B1C969BDE8F0414C
:1039200008470D4D0D480024461B14270DE000BF2D
:1039300004EB840005EB8000016829B1C969884760
:1039400010B10120BDE8F081641CB6FBF7F0A04285
:10395000EED80020F6E70000880000209C00002040
:10396000044801214174007A08B100207047012009
:1039700070470000E8020020012801D0032808D188
:103980000449002201284A7400D00020087401F084
:10399000CDB87047E802002070B50146022801D07A
:1039A000032943D1224C207A00283FD0012831D06E
:1039B00002282FD11F4800230229006802D00329C2
:1039C00028D119E0E360027912B1012A22D10BE07B
:1039D000D0E90565721B142A00D314222A4482619F
:1039E0004569AA420ED015E00169491C016142698E
:1039F00091420FD1237213E0E268521CE260082A60
:103A000008D9E360237202290AD00D21FEF7BDFD1B
:103A100001F082F8607C28B1BDE8704000F09CB9EC
:103A20000021F3E7BDE8704001F080B870BD0000F0
:103A3000E80200207800002038B5049C0094046857
:103A4000E468A04738BD70B541EA4201DDE904569B
:103A50004FF0A04441EA830141EA052104EB8000D4
:103A600041EA0641C0F8001770BD01224FF0A043A3
:103A7000824011B1C3F808257047C3F80C25704780
:103A8000094902220A60BFF36F8FBFF34F8F0A1DEF
:103A9000106006480268002AFCD000200860BFF3CE
:103AA0006F8FBFF34F8F704704E5014000E4014082
:103AB000094A01231360BFF36F8FBFF34F8F01607B
:103AC000064801680029FCD000201060BFF36F8F0A
:103AD000BFF34F8F7047000004E5014000E4014050
:103AE00070B50E4C01232360BFF36F8FBFF34F8F70
:103AF00000230B4D08E000BF51F8236040F823601D
:103B00002E68002EFCD05B1C9342F5D30020206071
:103B1000BFF36F8FBFF34F8F70BD000004E501400E
:103B200000E4014001480068C0B270471C05004035
:103B300008B5002242504058009008BD20B103490A
:103B400009680160002070470E207047CC5A0000C1
:103B5000FEB506460D460846FFF7F0FF002844D1A3
:103B6000002400940194012706208DF80060ADF830
:103B7000040002948DF80270694620202A6869DFEB
:103B800000948DF801708DF80240019402948DF834
:103B90000340694640202A6869DF00948DF8006080
:103BA000F720ADF8020001940294694623202A68A8
:103BB00069DF0094019402948DF800706946012039
:103BC0002A6869DF4FF4B06000900194029469465E
:103BD000A1202A6869DF0094019402948DF80040C6
:103BE0006946A0202A6869DF0020FEBD60DF00284A
:103BF00002D1024A012111707047000080000020AC
:103C000030B51548ADF5017D0078002821D04FF47E
:103C1000FA7500BFADF8005280A9684661DF38B17F
:103C2000052816D00DF5017DBDE83040FDF786BEB4
:103C30006C460A497DA800F0BBF806E0D0E90021F7
:103C4000204690477DA800F0CAF87F980028E1D070
:103C5000F4E70DF5017D30BD80000020D05A000052
:103C6000F8B5134C2078C0B10120A07001F0ACF879
:103C7000112814D0022001F0BFF800258DF8005063
:103C80006846FDF7E3FE11DF064625709DF800004B
:103C9000FDF700FF2EB13046F8BD0820F8BD00202A
:103CA000F8BDA57001F068FA032001F0A5F8F6E769
:103CB0001C0080007CB5194C207808B108207CBD20
:103CC0000120A070002001F07FF8112819D00020F9
:103CD00001F092F812480026006801908DF800600B
:103CE0006846FDF7B3FE0F4901A810DF05000AD0B2
:103CF000002020709DF80000FDF7CCFE2DB1284675
:103D00007CBD00207CBD0120F3E7A670667001F049
:103D10004FFA012001F070F8F3E700001C0080006A
:103D2000645A0000391900000EB50749684600F0D2
:103D30003FF805E0D0E900108847684600F04FF8EA
:103D400002980028F6D10EBD805A00000148007884
:103D5000704700001C0080000548817819B1007888
:103D600018B1FFF77DBF08207047FFF7A3BF000021
:103D70001C0080001FB568464BDF30B1052814D009
:103D800004B0BDE81040FDF7D9BD084901A800F016
:103D90000FF806E0D0E900210098904701A800F054
:103DA0001EF803980028E6D0F4E71FBDEC5A000087
:103DB000016009684160AFF3008010B5D0E90021CF
:103DC0005368994201D1002104E0D1E90034A342B3
:103DD00002D01946816010BD08314160F0E781686A
:103DE00000290BD0026892680A44826041684B68DF
:103DF0009A4203D108314160FFF7DFBF70470000EE
:103E00002DE9F04104461348134BC01A0C21B0FBB6
:103E1000F1F6A0694FF0FF3110F8022C02B92169C8
:103E2000002011E000EB400503EB85052F68974269
:103E300009D14F1C02D06F688F4204D194E80F0063
:103E4000AD68A84703E0401CB042EBD301202060DE
:103E5000BDE8F081645C0000585C000010B51446B9
:103E600012680830202A02D248F2145010BD0022F5
:103E700001F00FF80028F9D120202060002010BDAB
:103E8000083001F08FB8083001F04CB902480068E2
:103E9000002800D0012070470004014030B587B0F1
:103EA0000C460546182216496846FCF7B8FA217BED
:103EB00014488DF800100195012906D0022915D06B
:103EC000062917D1607B049014E08188C180607B53
:103ED0000490617CD4F80E0061F31F600590049893
:103EE000012807D10848FFF731FB03E0B4F80D10B3
:103EF0008180C1806846FFF799F907B030BD0000A6
:103F000008580000340000200C5C00002DE9F0414E
:103F10000C460546FFF73EFC0826B8B16969032048
:103F200041B3154A154B0F0505D0576DD3F808C09E
:103F30000F4467451ED1B1F5805F01D9042019E017
:103F4000506DD3F808C04718674502D96670BDE8C0
:103F5000F0815164D16C10659164106369695A688D
:103F600001F6FF711044090B0022FFF7E5F8002865
:103F7000EDD005206070EAE7741B8000440000204B
:103F800010B5044686B00020FFF7C2FC30B1154AD8
:103F900018212046FDF7D4FC06B010BD18221249A6
:103FA0006846FCF73CFA1148026D114881688A4264
:103FB00010D14068FFF7FEFA8DF80100FEF70FFB05
:103FC0008DF80100D4E90112684690470948FFF7CF
:103FD000A9FAE1E701208DF80100D4E90112684651
:103FE0009047D9E7813F0000C8580000741B80004B
:103FF00044000020794000002DE9F0410E460446BF
:10400000FFF7C8FB60B11A4DD5E91401401AA18A27
:104010006A6C0844904205D903207070BDE8F081B5
:104020000820FAE7134A286B52688718104A20695B
:104030004832FEF76BF8D4E903318046A28A38464D
:10404000FFF790F820B1D4E90310BDE8F04108472C
:10405000A18A286B08442863A18A286DC5F8488086
:1040600008442865C6F80880286D7060D6E700000F
:10407000741B80004400002001490620C9680847DD
:1040800044000020BFF34F8F05480168054A01F442
:10409000E06111430160BFF34F8F00BFFDE70000F7
:1040A0000CED00E00400FA0501460148FEF74ABCA9
:1040B000145C000030B58A1D8B79083187B0022B63
:1040C00033D153888489A3422FD1127A012A2CD16B
:1040D000184C0DF1040C3CCC8CE83C000A89ADF87E
:1040E0000C204A890C3104911249ADF80E20803918
:1040F000114C096A0591CDF818D0018A05AA60888B
:10410000ADDF18B96846FDF737FF38B10020ADF8CC
:10411000080001A96088B0DF50B106E040F2FD1050
:10412000ADF8080001A96088B0DF002007B030BDFD
:104130000120FBE72058000034000020F8B50D46B0
:1041400014460646694600F057FA00280FD0009B37
:10415000B3F5803F0AD2981C834207D8A97802227F
:10416000B2EB911F02D02989814201D20020F8BD13
:104170002380A11C3046009A00F074FBF8BD114664
:1041800000F0D6B8114600F0E3B8F8B50C46154675
:104190000646694600F030FA00280CD0009A501C00
:1041A000904207D3A1780223B3EB911F02D021895B
:1041B000814201D20020F8BD2946304600F052FB72
:1041C000009A0021A954F8BD2DE9FF410C46CE68A4
:1041D00017460546694600F017FB00280ED0E06838
:1041E00000280BD0A0783A46C0F3011002283146CF
:1041F000684606D000F0DAF80199696004B0BDE8BD
:10420000F08100F086F8F7E77CB50D461446694664
:1042100000F08FF9002820D02889082806D004282B
:1042200009D002280AD001280CD015E0DDE90001F0
:10423000C4E900010AE00098206006E0009800B29E
:10424000208002E0009840B22070C117DDE9002311
:1042500050405940084301D000207CBD01207CBD66
:104260007CB50D461446694600F0A1F9002820D01F
:104270002889082807D00021042809D002280AD05C
:1042800001280CD014E0DDE90001C4E9000109E0D7
:104290000098206006E0009880B2208002E000983C
:1042A000C0B22070DDE9002350405940084301D0DE
:1042B00000207CBD01207CBD7CB50D4614466946BE
:1042C00000F075F9002821D02989082908D0009824
:1042D000C21704290BD002290DD001290ED014E0F9
:1042E000DDE90002C4E900020146134609E0C317F4
:1042F0000146206005E001B2218001E041B2217059
:10430000CB1741405340194301D000207CBD012010
:104310007CBD70B50D46064614461146284600F091
:104320008EFA224629463046BDE8704000F03EB87D
:1043300038B50C460422694600F094FA002806D0ED
:104340009DF80310009861F31F602060012038BDC4
:104350001CB50C460822694600F084FA002824D0D7
:104360009DF801109DF800209DF80230080E42EAE9
:10437000012242EA034240EA13409DF803309DF8CF
:10438000041040EA132008439DF8051042EA036236
:1043900040EA01209DF8061040EA01409DF8071010
:1043A00040EA0160C4E9002001201CBD2DE9F04F66
:1043B00004469DB000200090064601904FF0FF3A61
:1043C0000AA800F05DF94FF0010BE94682E012AB5C
:1043D00005AA06A9204600F0C9F850B10AA8059917
:1043E00000F05FF960B10B98807810F0300F53D077
:1043F00060E09DF84800002870D11DB0BDE8F08F46
:104400000598B04242D30B9D0AAE0B98807800F01D
:104410000F00082812D0304600F05AF90B98A84235
:10442000F3D156460599B14230D3D4F808800991AA
:104430009DF8181008910E990D6820E00B980688D9
:10444000F0E729680F682FB1DDE9083229462046D8
:10445000B84711E011948968DDE908720988914232
:104460000CD1294617A8FEF7C1F985F80CB017AA98
:1044700039461198FDF7D7FE0028BED0AD6815B1BA
:10448000A1684145DDD0A168414523D19DF81810B0
:10449000204600F023FA1BE00C9840280AD200F0D6
:1044A0001F010BFA01F00C994A0959F82230034315
:1044B00049F82230E5682DB10AAB9DF81820204656
:1044C0000599A8470AAA9DF818102046FDF7ABFEEB
:1044D000002892D0A06800287FF479AFDDE90B04B2
:1044E00085780AA800F0F4F80028F7D115F0300F0D
:1044F00003D10B98008800B1641CC4B10020494668
:1045000005E000BF51F82020521C0ED1401CB0EB3A
:10451000541FF7D3600959F8201004F01F00C0F1B0
:1045200020022AFA02F0814201D0002065E7012032
:1045300063E71CB50C46694600F039F8002814D032
:10454000DDE90002C10709D051084FEA30006FEAE7
:1045500000026FEA0100C4E9002004E051084FEABC
:104560003000C4E900014FF001001CBDF8B507465A
:104570000020187008700E4610601C4615466946EB
:10458000384600F039F801004FF0010009D00099D9
:1045900059B1C8082860009800F007003070012069
:1045A000F8BDB96809B10020F8BD2070FBE72DE91E
:1045B000F8430026884681463446354604E0402EBE
:1045C00002D30020BDE8F8836946484600F076F93A
:1045D0000028F7D09DF80070324607F07F00C10F29
:1045E000FBF70EFF29430443F61D0D463806E6D4BB
:1045F000C8E900410120E5E7F8B50E4607466946DF
:1046000000F05CF900280AD09DF80040200616D57D
:10461000072504F07F0403E0202D01D30020F8BD1E
:104620006946384600F04AF90028F8D09DF8001095
:1046300001F07F00A8400443ED1D0806ECD40120E2
:104640003460F8BD10B559680B4AC968914212D15F
:104650000A4AD0E90110D2E90134234301D00020F5
:1046600008E011F8013BA0F101001B06F9D4C2E9F2
:1046700001100120907010BD50560000580000201D
:10468000C26000230160C0E901138B881A440261F3
:10469000B1F906301A4442610888002800D0012090
:1046A000704770B545680E46044660680188B1429F
:1046B00006D1807800F00F00082801D0012070BDDD
:1046C000204600F005F86068A842EED1002070BDD9
:1046D00030B541680A885AB101F1100343600A8A73
:1046E00042B18C780A89C4F30115032D07D00BE081
:1046F000002030BDC2680168FFF7C2FFF8E79D786F
:10470000C5F30115032D06D00225B5EB141F08D102
:104710004C89624309E08D8804690022641B0461AE
:1047200003E0B5EB941F00D10422897811F0300F1B
:1047300002D18168491C81609C880169214411442F
:104740000161B3F9062011444161012030BD30B54B
:104750004168002487B0897801F00F02082A11D03F
:104760008A091ED00222B2EB911F09D10269C1F35E
:1047700001110229146001D0032901D1406904808C
:1047800007B030BD0069056808E02C73294668460B
:10479000FEF72CF86846FFF7DAFFAD68002DF4D17C
:1047A000EEE7C1F30111012912D00229E6D0032955
:1047B000E4D04268917801F00F0107290BD0D1684D
:1047C00081B11289006907B0BDE83040FBF727BE10
:1047D00041690C70EDE70169D06807B0BDE8304071
:1047E00000F02DB81189006907B0BDE83040FBF733
:1047F0002FBE000010B5034B002408C080E816004F
:1048000010BD0000DF20000038B50D4604466946A3
:10481000FFF7F2FE00280BD0D4E90002D4E902131E
:10482000C5E90002C5E902130098814201D20020C7
:1048300038BDA860A168081AA060012038BD00B585
:104840000A4687B001466846FFF71AFF002807D0DE
:104850006846FFF77CFF6846FFF73AFF0028F7D16C
:1048600007B000BD7FB514460546A9B9124A2868AD
:10487000904208D110E0102269462846FFF7F2FF67
:10488000002807D0103C102CF5D82246694628464F
:10489000FFF7E8FF04B070BDA868A04201D2002075
:1048A000F8E72B682246284698470028F2D0A868E7
:1048B000001BA8600120EDE7DF20000010B50446D2
:1048C0008068002809D023680122204698470028E4
:1048D00003D0A068401EA060012010BD38B50024A0
:1048E00039B1012912D0022912D005291DD000208A
:1048F00038BD0546012269462846FFF7B3FF90B14F
:104900009DF800000006F5D4012038BD08220DE016
:1049100005466946FFF770FE28B100212846009A37
:10492000FFF7A0FF38BD204638BD0422BDE838405F
:104930000021FFF797BF00002DE9F04F81462C487A
:1049400017460E46C5680A4693B0012449462846D4
:10495000FDF766FEDFF89C80A24670B195F8550021
:1049600068B100F00101C0F340024B462846CDE992
:10497000006700F043F8D8B11BE0172419E0CDE937
:10498000006A4B460022294602A8FDF707FB4FF0BC
:10499000000B68B10FB3412202A91748FBF73FFD96
:1049A000C8F820B0C8F82CA06968C8F8081017E04B
:1049B00005246FB1012C13D00E482430FEF7E2FA23
:1049C000FDF758FDC8F8489013B02046BDE8F08FB9
:1049D000012C02D0FDF74EFDF6E7C8F814A0F3E76E
:1049E000002231464846FDF791FBC8E90960E7E738
:1049F00058000020741B8000151E80002DE9F04730
:104A0000A4B08946DDE92C5A04469846164644214E
:104A100002A8FBF71DFD442113A8FBF719FD47462B
:104A2000B9F1000F38D008F50050384A4368A16D3D
:104A3000934255D14B1EC3F30B03C91A41F6FF73C2
:104A4000D0F808C019448C454AD34FF440514B6804
:104A500093420DD10A78102A01D9096900E000219A
:104A60000278102A01D9006900E00020814237D184
:104A70004046FDF78BFE00B18EB30121A06DCDE95C
:104A8000000143460022214602A8FDF787FA0028CC
:104A900027D0A06D07442D1A56B10020CDE9005053
:104AA00002463B46214613A8FDF778FA002818D0A5
:104AB000BAF1000F28D0164DB9F1000F19D04046B9
:104AC000FDF764FE18B105F11800FEF75BFA41220C
:104AD00002A91048FBF7A3FC36B1AC2005E0FFE7C4
:104AE000002024B0BDE8F087A520E862A06D6863CF
:104AF00001E0AA20E8623EB10648412213A98230B3
:104B0000FBF78DFC6068E8600120EAE7DBE5B15166
:104B1000741B8000D41D8000034802490068FDF723
:104B2000BDBE00007C000020245900002DE9F041AA
:104B3000224C0025224E207A012730B92148311D10
:104B40000068FDF7B6FE306038B10220207231688F
:104B5000087928B101281CD114E06560BDE8F08116
:104B6000D1E90503C01A142800D31420B7EB900F25
:104B700001D2820800E001220869C968184419447A
:104B800029DF03E0D1E90301084428DF58B11128E7
:104B900012D003213068FDF7F8FC25726560BDE88E
:104BA000F041FFF7B9BF207C0028D7D1BDE8F04124
:104BB00000210220FEF7F0BE2772CFE7E8020020B6
:104BC000780000202459000010B5074C201DFDF787
:104BD00089FE002806D1607C002803D1BDE8104082
:104BE000FFF7A4BF10BD0000E802002010B510467A
:104BF0001A46FBF714FC002010BD10B510461A46EB
:104C0000FBF70DFC002010BD2DE9F0411E681C468D
:104C10001546074621B1012918D0052923D119E0ED
:104C200000202060401C2060B0421CD80122294690
:104C30003846FFF717FE002806D015F8010B0006CE
:104C400001D52068EEE70120BDE8F081082002468A
:104C5000186002E004200246186029463846BDE884
:104C6000F041FFF7FFBD0020EEE770B516460A469B
:104C70000446C11C104600F0ADFB054661193046E4
:104C8000C91C00F0A7FB284470BD000003B5094A09
:104C900085B0D2E91612CDE9001207498989ADF82D
:104CA000001006A9CDE90210044869464088AEDF2D
:104CB00007B000BDA0570000D8000020340000203D
:104CC000084670470846704770B5FEF73BFC114A2E
:104CD000114E136B546B916CE21A551EC5F30B0504
:104CE000521B42F2040518446D5802F6FF72B54299
:104CF00001D0032070BD1944A34201D1002070BD32
:104D00000823FDF7C5FC0028F9D1BDE87040FEF787
:104D100009BC0000741B8000DBE5B151F0B505460D
:104D2000002003464FF440540C4E4FF6FE7712E03D
:104D3000D4F804C0B44505D155F823C0B4F80CE04C
:104D4000F44504D02AB155F823C0BC4501D1012057
:104D5000F0BD5B1CDBB28B42EAD3F0BDDBE5B151A9
:104D600010B54FF44051174B4A68018A9A4221D13D
:104D700071B100F11403426990F8550062B1042842
:104D800008D00022BDE81040C9B21846FFF7C6BFE0
:104D9000002010BD0122F5E710B1012808D1F7E786
:104DA000012905D9C9B200221846FFF7B7FFEFE77E
:104DB000012010BD11B141690029E9D10078002816
:104DC000F6D110BDDBE5B1513EB504460949684650
:104DD000FEF7EEFF08E000BFD0E900212046904733
:104DE00030B16846FEF7FBFF02980028F4D13EBDC3
:104DF00011203EBD685A00003EB504460849684689
:104E0000FEF7D6FF07E000BFD0E90021204690471B
:104E10006846FEF7E4FF02980028F5D13EBD000089
:104E2000745A000002460348014B006800F009B8BC
:104E3000F41780005400002000225821001DFDF7C7
:104E400065B92DE9F04114464FF460751E460F46D2
:104E500080462A46FBF707FB30B10022012140467D
:104E6000FEF76AF998B905E00CB10020A0470020D0
:104E7000BDE8F0812A4639463046FBF7D0FA234692
:104E80002A4631464046FEF76DF90028F0D003204F
:104E9000EEE770B516460D46040007D035B1206C1C
:104EA000802200213828225403D307E00E2070BD51
:104EB0002154401C3828FBD30BE02154401C4028CF
:104EC000FBD32146084600F097F838212046FBF72F
:104ED000BFFA216CD4E912304A0FC900383459188E
:104EE0005041C4E90410227CE2710A0A42EA0062DD
:104EF000A2710A0C42EA00426271020242EA1160A7
:104F000020716069E070010AA170010C6170000EEF
:104F100004F838092146084600F06EF84FF0000208
:104F2000EEB1E06ED100C840A854A36ECB40A818E3
:104F30000371636ECB400372236ECB400373E36D4A
:104F4000CB400374A36DCB400375636DCB400376F8
:104F5000236DCB40521C0377042AE2D31FE01823B1
:104F60005042216D03EBC000C140A954666DC6409C
:104F7000A9180E71A66DC6400E72E66DC6400E737E
:104F8000266EC6400E74666EC6400E75A66EC6408E
:104F90000E76E66EC640521C0E77042AE0D300203F
:104FA00070BD0000A8B100210164C0E912110A49D6
:104FB00001650A4941650A4981650A49C1650A498D
:104FC00001660A4941660A4981660A49C1660020AC
:104FD00070470E207047000067E6096A85AE67BB20
:104FE00072F36E3C3AF54FA57F520E518C68059BCB
:104FF000ABD9831F19CDE05B2DE9F04FC8B000227B
:1050000013466F46CC181B1D2568E4782DBA25F091
:10501000FF05254347F82250521C102AF2D31BE00B
:1050200007EB820151F8083C4FEA734484EAF344E9
:1050300084EA932451F83C3C4FEAF31585EAB345E2
:1050400085EAD303234451F81C4C51F8401C2144F9
:10505000194447F82210521C402AE1D3036D4793AC
:10506000416D4691846D4594C26D44929246026EA4
:105070004392456E4295A946856E4195C66E40960F
:10508000B34600264FEAB21787EAF22787EA726C26
:1050900002EA090725EA020887EA0807BC44204F0C
:1050A00057F8268008EB0B07BC445DF82670AB462A
:1050B0000CEB070E4FEAB30787EA733787EAB35C56
:1050C00081EA04074D4601EA040891461F400AEBB5
:1050D0000E02A24687EA08070C46BC441946761C15
:1050E0000EEB0C03402ECDD3479E33440365469B05
:1050F0001944416545992144816544995144C165EC
:1051000043991144016642994944416641992944B1
:10511000816640995944C16648B0BDE8F08F0000EF
:10512000545900002DE9F04116460F46040004D002
:1051300006B317B10025A8461AE00E20BDE8F0819D
:10514000216C785D6054206C401C206440280ED196
:1051500021460846FFF750FFD4E912014FF40072D0
:10516000801841F10001C4F84080C4E912016D1CAF
:10517000B542E5D30020E1E710B51620FCF756FB59
:1051800048B10A4882684FF4800152B1016821F4A5
:105190008001016010BDBDE8104042F20100FCF743
:1051A000CDBB4FF0E020C0F8801110BD0001002001
:1051B00010B51620FCF73AFBA0B1114890F8000496
:1051C0004009082811D20121814011F0EC0F0CD0C8
:1051D0000C4882684FF480016AB1016841F4800193
:1051E000016010BD42F2010001E042F20200BDE8A0
:1051F0001040FCF7A3BB4FF0E020C0F8001110BD39
:1052000016E000E0000100207FB52A4800F15C01B3
:10521000826B6846FFF7EEFA274E9DE8070006F11D
:105220001C03274C83E8070019462448C860002067
:10523000A0706060A0604FF44771A6F54070FBF766
:1052400007F9A6F540721F4902F54770FFF761F8AC
:1052500000282BD0A07858B3A6F5407090F86C11B8
:10526000002901781CD019BB90F8720100B3D4E971
:105270000112A6F5C6756846FFF7BCFA9DE80F0057
:105280001C3686E80F004FF4B2712846FBF7E0F8B1
:105290002A460D493046FFF73CF8002806D003E0C7
:1052A00031B1807920B1094D0120E56004B070BDB5
:1052B0000020FBE7741B8000F421800045460000BD
:1052C000580000207057000050560000FC1E80005F
:1052D00070B503466FF07F40814200D20846124D00
:1052E000D5F804250244081A411E22F07F42586076
:1052F000952902D29630963A58601C7B05EB8400C3
:10530000C0F8402509494FF4F86088474FF4A07071
:1053100000EB84012846FEF70BFC4FF48030A040E0
:10532000C5F8040370BD000000400240C1550000F4
:1053300070B5174E3078002829D11648006801252D
:10534000C0F3004008B914480560144C4FF4807154
:105350002046FEF7EDFB4FF4A0712046FEF7E8FB78
:105360004FF4A2712046FEF7E3FB0D49A02081F81F
:1053700000040B4910202039C1F800010020C4F8B6
:105380000805A56025600220C4F80403357070BDCF
:1053900000000020180400400800004000400240C7
:1053A00024E000E070B515460E460446FFF7C0FF46
:1053B000314620462560BDE87040FFF789BF0000F8
:1053C000017B4FF4803088400149C1F808037047E1
:1053D000004002400870020A4A70020C8A70000EF7
:1053E000C87004207047000010B50248FDF777FA36
:1053F000002010BD1800800010B514210448FBF7F0
:1054000027F804480068FDF723FA002010BD0000CB
:10541000E80200202459000030B50F2490F85530E0
:1054200000220BB1042B03D190F86450012D06D05B
:10543000DD0707D090F85650012D02D002E0826EB1
:105440000DE0826D9B070AD590F85C30012B06D1E8
:10545000064B006EC3F5FC23984205D802440AB1FE
:1054600001240A60204630BD0424FBE70000000050
:1054700030B100680549884205D048F202507047B3
:1054800048F2015070470020704700006E524648B5
:1054900070B5FEF7FBFC002811D00020084A094B2C
:1054A000094C0121166801FA00F52E4203D004EBE5
:1054B0008005C5F80036401CC0B20728F2D370BD85
:1054C000080501403546526E00000140FFF7E0BF7D
:1054D00000207047002070472DE9FC4180461C46A3
:1054E00017460E460C48089DFDF7FCF910B1112037
:1054F000BDE8FC81A20839463046FEF7F1FA0648BD
:10550000FDF7EDF933463A4601214046CDE9004525
:10551000FDF720F80020EBE7180080002DE9F84F98
:10552000114D884681461E4617466946DDF828A07B
:105530002868FDF7A8F9040013D01C21FAF788FFAA
:1055400000202071C4F80090C4E90486C4E902A7D1
:1055500069462868FDF7B8F9FFF736FB0020BDE87B
:10556000F88F0420FBE700002459000015BC1A380E
:105570001763846EC7F90E76D46F8A69D7690FAB4B
:10558000C8A1F13ED19C3CD27F393E52777CA60D1A
:10559000706D0DF17D0A555A3DCDC7DD2AC85423E3
:1055A0008F4EFD5F3CF4630AEB454FF91112131463
:1055B0000D0E0F10000000000000000000000000B1
:1055C0000338FDD870470000813E0000873E000090
:1055D0005D3E000020000000780000000000000098
:1055E0004800280000204000A10700000000000043
:1055F00001000100000000000100000000000000A8
:105600000200050001000000220000000000000070
:10561000000000000000000000000000000000008A
:105620000100010000000000010000000000000077
:105630000200050001000000420000000000000020
:10564000000000000000000000000000000000005A
:10565000010011000400FCFF040000000000000035
:10566000020011000400FCFF040000000000000024
:10567000030021000400FCFF0400100000000000F3
:10568000040011000100FFFF010000000000000005
:10569000050011000200FEFF0400000000000000F1
:1056A000060011000400FCFF0400000000000000E0
:1056B000070011000400FCFF0400000000000000CF
:1056C000080017000200FEFF24000000F055000053
:1056D000090010000100FFFF01000000EC55000070
:1056E0000A0027000200FEFF4400030020560000CD
:1056F00000000000000000000000000000000000AA
:10570000010011000100FFFF010000000000000087
:10571000020017000200FEFF640100005056000066
:105720000000000000000000000000000000000079
:1057300001000700000000006801000000570000A1
:105740000200010000000000010000000000000055
:1057500003000500010000004200000000000000FE
:105760000000000000000000000000000000000039
:10577000010017000400FCFF680100000057000052
:10578000020017000400FCFFAC01000030570000CD
:105790000000000000000000000000000000000009
:1057A00000110300001113000200000001000000BE
:1057B0000338FDD870470C000C00000058020000B0
:1057C00002000000000000000200000000000000D5
:1057D0009C00002009000000000000000000000004
:1057E0000100000000000000280000000000000090
:1057F00000000000000100000000010000000000A7
:105800000000000000000000000000000000000098
:10581000F11B00000000000000000000000000007C
:105820000200000000000100000000000000000075
:105830000800000000000000F11B0000A94000006B
:105840000000000000000000040000000000000054
:105850000000000000000000000000000000000048
:105860000000000000000000000000000000000038
:10587000F40000000000000018000000000000001C
:105880000000000000000000000000000000000018
:105890000000000000000000000000000000000008
:1058A000170000000000000050EADA308883B89F3B
:1058B000604F15F30000C98E0200000000000000D8
:1058C00000000000000000000400000000000000D4
:1058D00000000000000000000000000000000000C8
:1058E00000010000000000000000000000000000B7
:1058F0000000000000000000001000000400000094
:105900000100000029270000E9530000ED4B0000D2
:10591000D9540000C1240000C14C0000D154000043
:105920006D270000E8228000001000000400000045
:105930000100000035270000F9530000FB4B000078
:105940001D55000009250000C54C0000D55400007D
:105950007D270000982F8A4291443771CFFBC0B554
:10596000A5DBB5E95BC25639F111F159A4823F922A
:10597000D55E1CAB98AA07D8015B8312BE85312483
:10598000C37D0C55745DBE72FEB1DE80A706DC9B44
:1059900074F19BC1C1699BE48647BEEFC69DC10FF0
:1059A000CCA10C246F2CE92DAA84744ADCA9B05C2C
:1059B000DA88F97652513E986DC631A8C82703B0EF
:1059C000C77F59BFF30BE0C64791A7D55163CA06FD
:1059D00067292914850AB72738211B2EFC6D2C4D09
:1059E000130D385354730A65BB0A6A762EC9C281F7
:1059F000852C7292A1E8BFA24B661AA8708B4BC28D
:105A0000A3516CC719E892D1240699D685350EF4B6
:105A100070A06A1016C1A419086C371E4C7748276D
:105A2000B5BCB034B30C1C394AAAD84E4FCA9C5BE3
:105A3000F36F2E68EE828F746F63A5781478C88434
:105A40000802C78CFAFFBE90EB6C50A4F7A3F9BE16
:105A5000F27871C6305C0000385C00000000000085
:105A60000000000000100001545A0000645A0000B9
:105A7000080000008C5A00009C5A0000080000003A
:105A80009C5A0000AC5A000008000000505C000066
:105A9000585C00000000000000000000405C0000B6
:105AA000505C00000000000000000000000000004A
:105AB000000000000000000000000000285C000062
:105AC000305C00000000000000000000000000202A
:105AD000AC5A0000CC5A000008000000385C0000FE
